{
  "_format": "hh-sol-artifact-1",
  "contractName": "CharityDonations",
  "sourceName": "contracts/CharityDonation.sol",
  "abi": [
    {
      "inputs": [
        {
          "internalType": "address",
          "name": "_admin",
          "type": "address"
        }
      ],
      "stateMutability": "nonpayable",
      "type": "constructor"
    },
    {
      "anonymous": false,
      "inputs": [
        {
          "indexed": false,
          "internalType": "uint256",
          "name": "CharityId",
          "type": "uint256"
        },
        {
          "indexed": false,
          "internalType": "string",
          "name": "name",
          "type": "string"
        },
        {
          "indexed": false,
          "internalType": "string",
          "name": "description",
          "type": "string"
        },
        {
          "indexed": false,
          "internalType": "uint256",
          "name": "duration",
          "type": "uint256"
        },
        {
          "indexed": false,
          "internalType": "address",
          "name": "creator",
          "type": "address"
        },
        {
          "indexed": false,
          "internalType": "uint256",
          "name": "goalAmount",
          "type": "uint256"
        },
        {
          "indexed": false,
          "internalType": "uint256",
          "name": "currentAmount",
          "type": "uint256"
        }
      ],
      "name": "CharityCreated",
      "type": "event"
    },
    {
      "anonymous": false,
      "inputs": [
        {
          "indexed": false,
          "internalType": "address",
          "name": "donor",
          "type": "address"
        },
        {
          "indexed": false,
          "internalType": "uint256",
          "name": "amount",
          "type": "uint256"
        },
        {
          "indexed": false,
          "internalType": "uint256",
          "name": "CharityId",
          "type": "uint256"
        }
      ],
      "name": "DonationRecieved",
      "type": "event"
    },
    {
      "anonymous": false,
      "inputs": [
        {
          "indexed": false,
          "internalType": "uint256",
          "name": "CharityId",
          "type": "uint256"
        },
        {
          "indexed": false,
          "internalType": "uint256",
          "name": "amount",
          "type": "uint256"
        },
        {
          "indexed": false,
          "internalType": "address",
          "name": "reciever",
          "type": "address"
        }
      ],
      "name": "WithdrawalMade",
      "type": "event"
    },
    {
      "inputs": [],
      "name": "admin",
      "outputs": [
        {
          "internalType": "address",
          "name": "",
          "type": "address"
        }
      ],
      "stateMutability": "view",
      "type": "function"
    },
    {
      "inputs": [
        {
          "internalType": "uint256",
          "name": "",
          "type": "uint256"
        }
      ],
      "name": "charities",
      "outputs": [
        {
          "internalType": "uint256",
          "name": "Id",
          "type": "uint256"
        },
        {
          "internalType": "string",
          "name": "name",
          "type": "string"
        },
        {
          "internalType": "string",
          "name": "description",
          "type": "string"
        },
        {
          "internalType": "address payable",
          "name": "creator",
          "type": "address"
        },
        {
          "internalType": "uint256",
          "name": "goalAmount",
          "type": "uint256"
        },
        {
          "internalType": "uint256",
          "name": "currentAmount",
          "type": "uint256"
        },
        {
          "internalType": "uint256",
          "name": "duration",
          "type": "uint256"
        },
        {
          "internalType": "bool",
          "name": "isActive",
          "type": "bool"
        }
      ],
      "stateMutability": "view",
      "type": "function"
    },
    {
      "inputs": [],
      "name": "charitiesCount",
      "outputs": [
        {
          "internalType": "uint256",
          "name": "",
          "type": "uint256"
        }
      ],
      "stateMutability": "view",
      "type": "function"
    },
    {
      "inputs": [
        {
          "internalType": "string",
          "name": "_name",
          "type": "string"
        },
        {
          "internalType": "uint256",
          "name": "_goalAmount",
          "type": "uint256"
        },
        {
          "internalType": "string",
          "name": "_description",
          "type": "string"
        },
        {
          "internalType": "uint256",
          "name": "_duration",
          "type": "uint256"
        }
      ],
      "name": "createCharity",
      "outputs": [],
      "stateMutability": "nonpayable",
      "type": "function"
    },
    {
      "inputs": [
        {
          "internalType": "uint256",
          "name": "CharityId",
          "type": "uint256"
        }
      ],
      "name": "deactivateCharity",
      "outputs": [],
      "stateMutability": "nonpayable",
      "type": "function"
    },
    {
      "inputs": [
        {
          "internalType": "uint256",
          "name": "CharityId",
          "type": "uint256"
        }
      ],
      "name": "donateFunds",
      "outputs": [],
      "stateMutability": "payable",
      "type": "function"
    },
    {
      "inputs": [
        {
          "internalType": "address",
          "name": "",
          "type": "address"
        },
        {
          "internalType": "uint256",
          "name": "",
          "type": "uint256"
        }
      ],
      "name": "donations",
      "outputs": [
        {
          "internalType": "uint256",
          "name": "",
          "type": "uint256"
        }
      ],
      "stateMutability": "view",
      "type": "function"
    },
    {
      "inputs": [
        {
          "internalType": "uint256",
          "name": "CharityId",
          "type": "uint256"
        },
        {
          "internalType": "uint256",
          "name": "amount",
          "type": "uint256"
        }
      ],
      "name": "withdrawFunds",
      "outputs": [],
      "stateMutability": "nonpayable",
      "type": "function"
    }
  ],
  "bytecode": "0x608060405234801561001057600080fd5b50604051611ba7380380611ba7833981810160405281019061003291906100db565b806000806101000a81548173ffffffffffffffffffffffffffffffffffffffff021916908373ffffffffffffffffffffffffffffffffffffffff16021790555050610108565b600080fd5b600073ffffffffffffffffffffffffffffffffffffffff82169050919050565b60006100a88261007d565b9050919050565b6100b88161009d565b81146100c357600080fd5b50565b6000815190506100d5816100af565b92915050565b6000602082840312156100f1576100f0610078565b5b60006100ff848285016100c6565b91505092915050565b611a90806101176000396000f3fe60806040526004361061007b5760003560e01c8063d32521a01161004e578063d32521a01461013a578063e525310514610156578063f851a4401461017f578063fb709d2e146101aa5761007b565b80632da8d725146100805780637b7c5f23146100a957806395086ed1146100d2578063bc80b1841461010f575b600080fd5b34801561008c57600080fd5b506100a760048036038101906100a29190610c33565b6101ee565b005b3480156100b557600080fd5b506100d060048036038101906100cb9190610da6565b610311565b005b3480156100de57600080fd5b506100f960048036038101906100f49190610ea3565b6104e3565b6040516101069190610ef2565b60405180910390f35b34801561011b57600080fd5b50610124610508565b6040516101319190610ef2565b60405180910390f35b610154600480360381019061014f9190610c33565b61050e565b005b34801561016257600080fd5b5061017d60048036038101906101789190610f0d565b6106c4565b005b34801561018b57600080fd5b50610194610a40565b6040516101a19190610f5c565b60405180910390f35b3480156101b657600080fd5b506101d160048036038101906101cc9190610c33565b610a64565b6040516101e5989796959493929190611032565b60405180910390f35b60008054906101000a900473ffffffffffffffffffffffffffffffffffffffff1673ffffffffffffffffffffffffffffffffffffffff163373ffffffffffffffffffffffffffffffffffffffff161461027c576040517f08c379a000000000000000000000000000000000000000000000000000000000815260040161027390611130565b60405180910390fd5b6002600082815260200190815260200160002060070160009054906101000a900460ff166102df576040517f08c379a00000000000000000000000000000000000000000000000000000000081526004016102d69061119c565b60405180910390fd5b60006002600083815260200190815260200160002060070160006101000a81548160ff02191690831515021790555050565b601460015410610356576040517f08c379a000000000000000000000000000000000000000000000000000000000815260040161034d9061122e565b60405180910390fd5b600160008154809291906103699061127d565b919050555060405180610100016040528060015481526020018581526020018381526020013373ffffffffffffffffffffffffffffffffffffffff16815260200184815260200160008152602001828152602001600115158152506002600060015481526020019081526020016000206000820151816000015560208201518160010190816103f891906114d1565b50604082015181600201908161040e91906114d1565b5060608201518160030160006101000a81548173ffffffffffffffffffffffffffffffffffffffff021916908373ffffffffffffffffffffffffffffffffffffffff1602179055506080820151816004015560a0820151816005015560c0820151816006015560e08201518160070160006101000a81548160ff0219169083151502179055509050507fa7fafc4061a118afc3fef273a295ba13b04d0679542679b60aac880d8cf6a95e600154858484338860006040516104d597969594939291906115de565b60405180910390a150505050565b6003602052816000526040600020602052806000526040600020600091509150505481565b60015481565b6002600082815260200190815260200160002060070160009054906101000a900460ff16610571576040517f08c379a0000000000000000000000000000000000000000000000000000000008152600401610568906116a7565b60405180910390fd5b600034116105b4576040517f08c379a00000000000000000000000000000000000000000000000000000000081526004016105ab90611739565b60405180910390fd5b600073ffffffffffffffffffffffffffffffffffffffff166002600083815260200190815260200160002060030160009054906101000a900473ffffffffffffffffffffffffffffffffffffffff1673ffffffffffffffffffffffffffffffffffffffff1603610659576040517f08c379a0000000000000000000000000000000000000000000000000000000008152600401610650906117a5565b60405180910390fd5b3460026000838152602001908152602001600020600501600082825461067f91906117c5565b925050819055507f3a1ac8081a09eb5a381f7a0d527b653dc52e457a272124cf09543393114e55dc3334836040516106b9939291906117f9565b60405180910390a150565b816002600082815260200190815260200160002060030160009054906101000a900473ffffffffffffffffffffffffffffffffffffffff1673ffffffffffffffffffffffffffffffffffffffff163373ffffffffffffffffffffffffffffffffffffffff161480610780575060008054906101000a900473ffffffffffffffffffffffffffffffffffffffff1673ffffffffffffffffffffffffffffffffffffffff163373ffffffffffffffffffffffffffffffffffffffff16145b6107bf576040517f08c379a00000000000000000000000000000000000000000000000000000000081526004016107b6906118a2565b60405180910390fd5b8160026000858152602001908152602001600020600501541015610818576040517f08c379a000000000000000000000000000000000000000000000000000000000815260040161080f9061190e565b60405180910390fd5b6002600084815260200190815260200160002060070160009054906101000a900460ff1661087b576040517f08c379a00000000000000000000000000000000000000000000000000000000081526004016108729061197a565b60405180910390fd5b600073ffffffffffffffffffffffffffffffffffffffff166002600085815260200190815260200160002060030160009054906101000a900473ffffffffffffffffffffffffffffffffffffffff1673ffffffffffffffffffffffffffffffffffffffff1603610920576040517f08c379a0000000000000000000000000000000000000000000000000000000008152600401610917906117a5565b60405180910390fd5b81600260008581526020019081526020016000206005016000828254610946919061199a565b925050819055506002600084815260200190815260200160002060030160009054906101000a900473ffffffffffffffffffffffffffffffffffffffff1673ffffffffffffffffffffffffffffffffffffffff166108fc839081150290604051600060405180830381858888f193505050501580156109c9573d6000803e3d6000fd5b507f4c9940ea870be97905dfeed7af0d93362cdeb378c1ee90f75755b4010549095c83836002600087815260200190815260200160002060030160009054906101000a900473ffffffffffffffffffffffffffffffffffffffff16604051610a3393929190611a23565b60405180910390a1505050565b60008054906101000a900473ffffffffffffffffffffffffffffffffffffffff1681565b6002602052806000526040600020600091509050806000015490806001018054610a8d906112f4565b80601f0160208091040260200160405190810160405280929190818152602001828054610ab9906112f4565b8015610b065780601f10610adb57610100808354040283529160200191610b06565b820191906000526020600020905b815481529060010190602001808311610ae957829003601f168201915b505050505090806002018054610b1b906112f4565b80601f0160208091040260200160405190810160405280929190818152602001828054610b47906112f4565b8015610b945780601f10610b6957610100808354040283529160200191610b94565b820191906000526020600020905b815481529060010190602001808311610b7757829003601f168201915b5050505050908060030160009054906101000a900473ffffffffffffffffffffffffffffffffffffffff16908060040154908060050154908060060154908060070160009054906101000a900460ff16905088565b6000604051905090565b600080fd5b600080fd5b6000819050919050565b610c1081610bfd565b8114610c1b57600080fd5b50565b600081359050610c2d81610c07565b92915050565b600060208284031215610c4957610c48610bf3565b5b6000610c5784828501610c1e565b91505092915050565b600080fd5b600080fd5b6000601f19601f8301169050919050565b7f4e487b7100000000000000000000000000000000000000000000000000000000600052604160045260246000fd5b610cb382610c6a565b810181811067ffffffffffffffff82111715610cd257610cd1610c7b565b5b80604052505050565b6000610ce5610be9565b9050610cf18282610caa565b919050565b600067ffffffffffffffff821115610d1157610d10610c7b565b5b610d1a82610c6a565b9050602081019050919050565b82818337600083830152505050565b6000610d49610d4484610cf6565b610cdb565b905082815260208101848484011115610d6557610d64610c65565b5b610d70848285610d27565b509392505050565b600082601f830112610d8d57610d8c610c60565b5b8135610d9d848260208601610d36565b91505092915050565b60008060008060808587031215610dc057610dbf610bf3565b5b600085013567ffffffffffffffff811115610dde57610ddd610bf8565b5b610dea87828801610d78565b9450506020610dfb87828801610c1e565b935050604085013567ffffffffffffffff811115610e1c57610e1b610bf8565b5b610e2887828801610d78565b9250506060610e3987828801610c1e565b91505092959194509250565b600073ffffffffffffffffffffffffffffffffffffffff82169050919050565b6000610e7082610e45565b9050919050565b610e8081610e65565b8114610e8b57600080fd5b50565b600081359050610e9d81610e77565b92915050565b60008060408385031215610eba57610eb9610bf3565b5b6000610ec885828601610e8e565b9250506020610ed985828601610c1e565b9150509250929050565b610eec81610bfd565b82525050565b6000602082019050610f076000830184610ee3565b92915050565b60008060408385031215610f2457610f23610bf3565b5b6000610f3285828601610c1e565b9250506020610f4385828601610c1e565b9150509250929050565b610f5681610e65565b82525050565b6000602082019050610f716000830184610f4d565b92915050565b600081519050919050565b600082825260208201905092915050565b60005b83811015610fb1578082015181840152602081019050610f96565b60008484015250505050565b6000610fc882610f77565b610fd28185610f82565b9350610fe2818560208601610f93565b610feb81610c6a565b840191505092915050565b600061100182610e45565b9050919050565b61101181610ff6565b82525050565b60008115159050919050565b61102c81611017565b82525050565b600061010082019050611048600083018b610ee3565b818103602083015261105a818a610fbd565b9050818103604083015261106e8189610fbd565b905061107d6060830188611008565b61108a6080830187610ee3565b61109760a0830186610ee3565b6110a460c0830185610ee3565b6110b160e0830184611023565b9998505050505050505050565b7f4f6e6c792061646d696e2063616e20706572666f726d2074686973206163746960008201527f6f6e2e0000000000000000000000000000000000000000000000000000000000602082015250565b600061111a602383610f82565b9150611125826110be565b604082019050919050565b600060208201905081810360008301526111498161110d565b9050919050565b7f43686172697479206e6f7420617661696c61626c650000000000000000000000600082015250565b6000611186601583610f82565b915061119182611150565b602082019050919050565b600060208201905081810360008301526111b581611179565b9050919050565b7f4e6f20737061636520617661696c61626c6520666f72206d6f7265206368617260008201527f6974696573000000000000000000000000000000000000000000000000000000602082015250565b6000611218602583610f82565b9150611223826111bc565b604082019050919050565b600060208201905081810360008301526112478161120b565b9050919050565b7f4e487b7100000000000000000000000000000000000000000000000000000000600052601160045260246000fd5b600061128882610bfd565b91507fffffffffffffffffffffffffffffffffffffffffffffffffffffffffffffffff82036112ba576112b961124e565b5b600182019050919050565b7f4e487b7100000000000000000000000000000000000000000000000000000000600052602260045260246000fd5b6000600282049050600182168061130c57607f821691505b60208210810361131f5761131e6112c5565b5b50919050565b60008190508160005260206000209050919050565b60006020601f8301049050919050565b600082821b905092915050565b6000600883026113877fffffffffffffffffffffffffffffffffffffffffffffffffffffffffffffffff8261134a565b611391868361134a565b95508019841693508086168417925050509392505050565b6000819050919050565b60006113ce6113c96113c484610bfd565b6113a9565b610bfd565b9050919050565b6000819050919050565b6113e8836113b3565b6113fc6113f4826113d5565b848454611357565b825550505050565b600090565b611411611404565b61141c8184846113df565b505050565b5b8181101561144057611435600082611409565b600181019050611422565b5050565b601f8211156114855761145681611325565b61145f8461133a565b8101602085101561146e578190505b61148261147a8561133a565b830182611421565b50505b505050565b600082821c905092915050565b60006114a86000198460080261148a565b1980831691505092915050565b60006114c18383611497565b9150826002028217905092915050565b6114da82610f77565b67ffffffffffffffff8111156114f3576114f2610c7b565b5b6114fd82546112f4565b611508828285611444565b600060209050601f83116001811461153b5760008415611529578287015190505b61153385826114b5565b86555061159b565b601f19841661154986611325565b60005b828110156115715784890151825560018201915060208501945060208101905061154c565b8683101561158e578489015161158a601f891682611497565b8355505b6001600288020188555050505b505050505050565b6000819050919050565b60006115c86115c36115be846115a3565b6113a9565b610bfd565b9050919050565b6115d8816115ad565b82525050565b600060e0820190506115f3600083018a610ee3565b81810360208301526116058189610fbd565b905081810360408301526116198188610fbd565b90506116286060830187610ee3565b6116356080830186610f4d565b61164260a0830185610ee3565b61164f60c08301846115cf565b98975050505050505050565b7f43686172697479206e6f7420617661696c61626c652e00000000000000000000600082015250565b6000611691601683610f82565b915061169c8261165b565b602082019050919050565b600060208201905081810360008301526116c081611684565b9050919050565b7f446f6e6174696f6e206d7573742062652067726561746572207468616e207a6560008201527f726f000000000000000000000000000000000000000000000000000000000000602082015250565b6000611723602283610f82565b915061172e826116c7565b604082019050919050565b6000602082019050818103600083015261175281611716565b9050919050565b7f4368617269747920646f6573206e6f7420657869737400000000000000000000600082015250565b600061178f601683610f82565b915061179a82611759565b602082019050919050565b600060208201905081810360008301526117be81611782565b9050919050565b60006117d082610bfd565b91506117db83610bfd565b92508282019050808211156117f3576117f261124e565b5b92915050565b600060608201905061180e6000830186610f4d565b61181b6020830185610ee3565b6118286040830184610ee3565b949350505050565b7f4f6e6c79207468652063616d706169676e2063726561746f72206f722061646d60008201527f696e2063616e2061636365737320746869732063616d706169676e2e00000000602082015250565b600061188c603c83610f82565b915061189782611830565b604082019050919050565b600060208201905081810360008301526118bb8161187f565b9050919050565b7f4e6f7420656e6f7567682066756e647300000000000000000000000000000000600082015250565b60006118f8601083610f82565b9150611903826118c2565b602082019050919050565b60006020820190508181036000830152611927816118eb565b9050919050565b7f436861726974792069732063757272656e746c7920756e617661696c61626c65600082015250565b6000611964602083610f82565b915061196f8261192e565b602082019050919050565b6000602082019050818103600083015261199381611957565b9050919050565b60006119a582610bfd565b91506119b083610bfd565b92508282039050818111156119c8576119c761124e565b5b92915050565b60006119e96119e46119df84610e45565b6113a9565b610e45565b9050919050565b60006119fb826119ce565b9050919050565b6000611a0d826119f0565b9050919050565b611a1d81611a02565b82525050565b6000606082019050611a386000830186610ee3565b611a456020830185610ee3565b611a526040830184611a14565b94935050505056fea264697066735822122079dbda1586a0cf5951521428dd12671ccb19371f2b878e25fdd9616110b16f8564736f6c634300081b0033",
  "linkReferences": {},
  "deployedLinkReferences": {}
}